:10000000DBED00F0E2ED00F0BEA68BEF00F0F4ECCB
:10001000FFF0F4ECFFF0400EC16FF4ECFFF0F4ECF5
:10002000FFF0CEA68BEF00F0F4ECFFF0F4ECFFF065
:10003000790EC16FF4ECFFF0F4ECFFF0CEA68BEF7D
:1000400000F0F4ECFFF0F4ECFFF0240EC16FF4ECE0
:10005000FFF0F4ECFFF0CEA68BEF00F0F4ECFFF035
:10006000F4ECFFF0300EC16FF4ECFFF0F4ECFFF0B5
:10007000CEA68BEF00F0F4ECFFF0F4ECFFF0190EDD
:10008000C16FF4ECFFF0F4ECFFF0CEA68BEF00F0C4
:10009000F4ECFFF0F4ECFFF0120EC16FF4ECFFF0A3
:1000A000F4ECFFF0CEA68BEF00F0F4ECFFF0F4ECF4
:1000B000FFF0020EC16FF4ECFFF0F4ECFFF0CEA6FF
:1000C0008BEF00F0F4ECFFF0F4ECFFF0780EC16F72
:1000D000F4ECFFF0F4ECFFF0CEA68BEF00F0F4ECC4
:1000E000FFF0F4ECFFF0000EC16FF4ECFFF0F4EC65
:1000F000FFF0CEA68BEF00F0F4ECFFF0F4ECFFF095
:10010000180EC16FF4ECFFF0F4ECFFF0CEA68BEC10
:1001100000F007EF00F0F4ECFFF0F4ECFFF0080E55
:10012000C16FF4ECFFF0F4ECFFF0CEB607EF00F097
:10013000F4ECFFF0F4ECFFF0030EC16FF4ECFFF011
:10014000F4ECFFF0CEB607EF00F0F4ECFFF0F4ECC7
:10015000FFF0460EC16FF4ECFFF0F4ECFFF0CEB60A
:1001600007EF00F0F4ECFFF0F4ECFFF0210EC16FAC
:10017000F4ECFFF0F4ECFFF0CEB607EF00F0F4EC97
:10018000FFF0F4ECFFF0040EC16FF4ECFFF0F4ECC0
:10019000FFF0CEB607EF00F0F4ECFFF0F4ECFFF068
:1001A0000E0EC16FF4ECFFF0F4ECFFF0CEB607EFEB
:1001B00000F08BEF00F00001600EAD6F0001020E49
:1001C000B16F12000401D169C169186BC96B0401D8
:0A01D000CE69006BC687018712009C
:020000040001F9
:10FFE40000EF00F0FA0E016EF90E006E0000002E14
:0CFFF400F8EFFFF0012EF6EFFFF0120016
:020000040030CA
:10000000EC0D27C79FFFFFFFFFFFFFFFFFFFFFFF75
:10001000FFFFFFFFFFFFFFFFFFFFFFFFFFFFFFFFF0
:03002000FFFFFFE0
:00000001FF
